:0200000470008A
:10000000464346420004015600000000010303007D
:1000100000000000000000000000000000000000E0
:1000200000000000000000000000000000000000D0
:1000300000000000000000000000000000000000C0
:1000400000000000000406000000000000000000A6
:100050000000400000000000000000000000000060
:100060000000000000000000000000000000000090
:100070000000000000000000000000000000000080
:10008000EB04180A063204260000000000000000FD
:100090000000000000000000000000000000000060
:1000A0000000000000000000000000000000000050
:1000B0000000000000000000000000000000000040
:1000C0000000000000000000000000000000000030
:1000D0000000000000000000000000000000000020
:1000E0000000000000000000000000000000000010
:1000F0000000000000000000000000000000000000
:1001000000000000000000000000000000000000EF
:1001100000000000000000000000000000000000DF
:1001200000000000000000000000000000000000CF
:1001300000000000000000000000000000000000BF
:1001400000000000000000000000000000000000AF
:10015000000000000000000000000000000000009F
:10016000000000000000000000000000000000008F
:10017000000000000000000000000000000000007F
:10018000000000000000000000000000000000006F
:10019000000000000000000000000000000000005F
:1001A000000000000000000000000000000000004F
:1001B000000000000000000000000000000000003F
:1001C000000100000010000000000000000000001E
:1001D000000001000000000000000000000000001E
:1001E000000000000000000000000000000000000F
:1001F00000000000000000000000000000000000FF
:10100000D10020410020007000000000000000001E
:1010100020100070001000700000000000000000B0
:10102000000000700000400000000000FFFFFFFF14
:1020000000000220F9240070892500708D250070E1
:102010008525007085250070852500700000000072
:10202000000000000000000000000000912500708A
:10203000852500700000000095250070992500702E
:102040009D250070A1250070A5250070A9250070B0
:10205000AD250070B1250070B5250070B925007060
:10206000BD250070C1250070C5250070C925007010
:10207000CD250070D1250070D5250070D9250070C0
:10208000DD25007085250070852500708525007090
:10209000E1250070E5250070E9250070ED25007050
:1020A000F1250070F5250070F9250070FD25007000
:1020B0000126007005260070092600700D260070AC
:1020C0001126007015260070192600701D2600705C
:1020D000212600702526007085250070852500705A
:1020E0008525007085250070852500708525007088
:1020F0008525007085250070852500708525007078
:102100008525007085250070852500708525007067
:102110008525007085250070852500708525007057
:10212000292600702D26007031260070352600709B
:102130003926007085250070852500708525007082
:102140008525007085250070852500708525007027
:102150008525007085250070852500708525007017
:102160008525007085250070852500708525007007
:1021700085250070852500708525007085250070F7
:1021800085250070852500708525007085250070E7
:1021900085250070852500708525007085250070D7
:1021A00085250070852500703D2600704126007051
:1021B00085250070852500708525007085250070B7
:1021C00085250070852500708525007085250070A7
:1021D0008525007085250070852500708525007097
:1021E00085250070852500708525007045260070C6
:1021F00049260070852500704D260070512600701C
:1022000085250070852500705526007059260070C0
:102210008525007085250070852500708525007056
:102220008525007085250070852500708525007046
:102230008525007085250070852500708525007036
:102240008525007085250070852500708525007026
:102250008525007085250070852500708525007016
:102260008525007085250070852500708525007006
:1022700085250070852500708525007085250070F6
:1022800085250070852500708525007085250070E6
:1022900085250070852500708525007085250070D6
:1022A0005D2600706126007065260070852500702F
:1022B00069260070852500708525007085250070D1
:1022C00085250070852500708525007085250070A6
:1022D0008525007085250070852500708525007096
:1022E0008525007085250070852500708525007086
:1022F0008525007085250070852500708525007076
:102300008525007085250070852500708525007065
:102310008525007085250070852500708525007055
:102320008525007085250070852500708525007045
:102330008525007085250070852500708525007035
:102340008525007085250070852500708525007025
:102350008525007085250070852500708525007015
:102360008525007085250070852500708525007005
:1023700085250070852500708525007085250070F5
:1023800085250070852500708525007085250070E5
:1023900085250070852500708525007085250070D5
:1023A00085250070852500708525007085250070C5
:1023B00085250070852500708525007085250070B5
:1023C00085250070852500708525007085250070A5
:1023D0008525007085250070852500708525007095
:1023E0008525007085250070852500708525007085
:1023F000852500708525007085250070FFFFFFFF93
:102400000348044B834202D0034B03B11847704783
:10241000B0000020B0000020000000000548064980
:102420000B1AD90F01EBA301491002D0034B03B1E2
:1024300018477047B0000020B000002000000000E6
:1024400010B5064C237843B9FFF7DAFF044B13B1FC
:102450000448AFF300800123237010BDB0000020BA
:1024600000000000B485007008B5044B1BB104499E
:102470000448AFF30080BDE80840CFE7000000004B
:10248000B4000020B4850070A3F5803A704700BF07
:10249000154B002B08BF114B9D46FFF7F5FF0021A0
:1024A0008B460F461148124A121A00F0C9FA0C4B1B
:1024B000002B00D098470B4B002B00D098470020F2
:1024C000002104000D000B4800F042F900F082F9F1
:1024D0002000290000F0D8FF00F04EF900000800AD
:1024E000000000000000000000000220B0000020FA
:1024F000B0030020A127007072B61648164901608B
:102500000A6882F30888154880471549154A164B12
:102510009A42BEBF51F8040B42F8040BF8E7134A85
:10252000134B9A42BEBF51F8040B42F8040BF8E774
:10253000104B00209A42BCBF42F8040BFAE70E4948
:102540000E4A00209142BCBF41F8040BFAE762B684
:102550000B48804708ED00E00020007059760070BD
:10256000DC85007000000020B0000020B0000020DA
:10257000B0000020B0000020B0000020B003002018
:1025800091240070FFF7FEBF3848004738480047E5
:10259000384800473848004738480047384800471F
:1025A000384800473848004738480047384800470F
:1025B00038480047384800473848004738480047FF
:1025C00038480047384800473848004738480047EF
:1025D00038480047384800473848004738480047DF
:1025E00038480047384800473848004738480047CF
:1025F00038480047384800473848004738480047BF
:1026000038480047384800473848004738480047AE
:10261000384800473848004738480047384800479E
:10262000384800473848004738480047384800478E
:10263000384800473848004738480047384800477E
:10264000384800473848004738480047384800476E
:10265000384800473848004738480047384800475E
:1026600038480047384800473848004789250070F7
:102670008D250070912500709525007099250070BA
:1026800085250070852500708525007085250070E2
:1026900085250070852500708525007085250070D2
:1026A00085250070852500708525007085250070C2
:1026B00085250070852500708525007085250070B2
:1026C00085250070316A0070596A0070816A007057
:1026D000A96A0070D16A0070F96A0070216B0070FD
:1026E000496B007085250070852500708525007078
:1026F0008525007085250070852500708525007072
:102700008525007085250070852500708525007061
:102710008525007085250070852500708525007051
:102720008525007085250070852500708525007041
:102730008525007085250070852500708525007031
:102740008525007085250070852500708525007021
:10275000002301461A46184600F034BD0A22002123
:1027600000F024BD0A23002200F012BD014B1868BE
:10277000704700BF0000002008B5074B044613B1A6
:10278000002100F06FFD054B1868836A03B198477C
:10279000204600F0B9FD00BF653200706C82007009
:1027A00038B50A4C0A4D641BA4100AD004F18043CA
:1027B000013B05EB8305013C55F804399847002C93
:1027C000F9D1BDE8384005F0FBBE00BFDC850070E4
:1027D000D885007070B50D4E0D4D761BB61006D025
:1027E0000024013455F8043B9847A642F9D1094E1C
:1027F000094D761B05F0DEFEB61006D0002401342C
:1028000055F8043B9847A642F9D170BDD4850070B5
:10281000D4850070D8850070D4850070024B0146C5
:10282000186800F0B3B900BF00000020024B014659
:10283000186800F055B900BF00000020844641EA46
:10284000000313F003036DD1403A41D351F8043B28
:1028500040F8043B51F8043B40F8043B51F8043B7A
:1028600040F8043B51F8043B40F8043B51F8043B6A
:1028700040F8043B51F8043B40F8043B51F8043B5A
:1028800040F8043B51F8043B40F8043B51F8043B4A
:1028900040F8043B51F8043B40F8043B51F8043B3A
:1028A00040F8043B51F8043B40F8043B51F8043B2A
:1028B00040F8043B51F8043B40F8043B51F8043B1A
:1028C00040F8043B51F8043B40F8043B403ABDD289
:1028D000303211D351F8043B40F8043B51F8043B2B
:1028E00040F8043B51F8043B40F8043B51F8043BEA
:1028F00040F8043B103AEDD20C3205D351F8043BBA
:1029000040F8043B043AF9D2043208D0D2071CBF85
:1029100011F8013B00F8013B01D30B8803806046AE
:10292000704700BF082A13D38B078DD010F0030324
:102930008AD0C3F10403D21ADB071CBF11F8013B94
:1029400000F8013B80D331F8023B20F8023B7BE7E3
:10295000043AD9D3013A11F8013B00F8013BF9D20E
:102960000B7803704B7843708B78837060467047A8
:102970008842F0B40DD98B1883420AD9841832B139
:10298000224613F8014D02F8014D9942F9D1F0BCED
:1029900070470F2A0ED80346541E002AF7D0013480
:1029A0000C44013B11F8012B03F8012FA142F9D18E
:1029B000F0BC704740EA01039B073BD1A2F110072E
:1029C0003F0901F1200606EB071601F1100300F1A3
:1029D000100453F8105C44F8105C53F80C5C44F895
:1029E0000C5C53F8085C44F8085C53F8045C44F849
:1029F000045C1033B34204F11004EAD17B1C1B01C8
:102A000012F00C0F194402F00F05034415D0043DD9
:102A1000AD0803EB850C1C1F0E4656F8047B44F8EA
:102A2000047F6445F9D10135AD002B44294402F0FF
:102A30000302B1E7541E0346B1E72A46ACE700BFE4
:102A4000F0B4860746D0541E002A3CD0CAB20346D2
:102A500002E014F1FF3436D303F8012B9D07F8D1BF
:102A6000032C29D9CDB245EA05250F2C45EA0545A9
:102A700033D9A4F11006360903F1200707EB061736
:102A800003F1100242E9045542E902551032BA42FC
:102A9000F8D1721C14F00C0F03EB021204F00F06B5
:102AA00013D0331F23F003030433134442F8045BB1
:102AB0009342FBD106F003042CB1C9B21C4403F8C5
:102AC000011B9C42FBD1F0BC704734461346002CDE
:102AD000F3D1F8E714460346C2E71A462646E0E774
:102AE00000293CD038B551F8043C0C1F002BB8BF6E
:102AF000E418054600F004FC234B1A682AB1A242F0
:102B00000DD921686018824223D0626028461C607B
:102B1000BDE8384000F0F6BBA34203D81A4653681C
:102B2000002BF9D111685018A04219D024D821687F
:102B30006018834206D0636054602846BDE8384080
:102B400000F0E0BBD3E900030144636021605460FE
:102B5000F3E7D2E90002014462602160D6E77047E2
:102B600020680144501883421160E6D1D3E9000384
:102B7000014453601160E0E70C232B602846BDE858
:102B8000384000F0BFBB00BFCC000020F8B5CD1C22
:102B900025F0030508350C2D38BF0C25002D064601
:102BA00033DBA94231D82A4F00F0AAFB3A6852B170
:102BB00013685B1B04D43FE023685B1B29D52246C6
:102BC0005468002CF8D1796800293BD0294630465A
:102BD00000F040F8431C28D0C41C24F00304A04299
:102BE00005D0211A304600F035F801301DD025609F
:102BF000304600F087FB04F10B0020F00700231D96
:102C0000C21A01D01B1AA350F8BD0C22326000205A
:102C1000F8BD0B2B05D8A242636811D05360E7E7DB
:102C2000144623601C442560E2E70C2330463360E1
:102C300000F068FB0020F8BD0B2BF1D85368144658
:102C40003B60D5E7304600F005F87860BEE700BF8E
:102C5000CC00002038B5074C002305460846236009
:102C600004F026FE431C00D038BD2368002BFBD0A7
:102C70002B6038BDAC030020000000000000000005
:102C8000A2EB0300704700BF02780B78012A28BF2F
:102C90009A42F5D16DE9044540EA0104CDE90267A5
:102CA0006FF0000C4FEA447212B380EA010414F092
:102CB000070F6AD100F0070420F0070004F00305B5
:102CC00021F007014FEAC505F0E8042314F0040FD2
:102CD000F1E804670CFA05F462EA040266EA040605
:102CE0000AD063EA0403624667EA0407664603E023
:102CF000F0E80423F1E8046782FA4CF582EA06045E
:102D0000A4FA8CF46CBB83FA4CF583EA0705A5FAA8
:102D10008CF595B950E9022351E9026782FA4CF526
:102D200082EA0604A4FA8CF483FA4CF583EA0705D8
:102D3000A5FA8CF52543DBD09CB92DBAB5FA85F4FC
:102D400024F0070427FA04F1DDE9026723FA04F30B
:102D500003F0FF0001F0FF01FDE80445A0EB0100D6
:102D6000704724BAB4FA84F424F0070426FA04F174
:102D7000DDE9026722FA04F202F0FF0001F0FF0130
:102D8000FDE80445A0EB0100704714F0030F3CD1AF
:102D900010F0030428D150F8082B51F8083B82FAB0
:102DA0004CF582EA0305A5FA8CF55DB950F8042CC0
:102DB00051F8043C82FA4CF582EA0305A5FA8CF539
:102DC000002DE8D02DBAB5FA85F424F0070423FAD3
:102DD00004F122FA04F202F0FF0001F0FF01FDE825
:102DE0000445A0EB010070474FEAC40420F0030043
:102DF00050F8082B21F0030151F8083B0CFA04F4B9
:102E000062EA040263EA0403C9E710F003041AD07B
:102E1000A1EB040120F00300E40750F8042B06D0D6
:102E20000FD28B785FFAA2F4E41A06D12BB1CB78DB
:102E30005FFAB2F4E41A00D11BB920465DF8104BDA
:102E4000704701F1040150F8042BCC0721F0030175
:102E500051F8043B48D824D222F07F4482FA4CF542
:102E600094EA1325A5FA8CF50AD165B951F8043B0B
:102E700084EA0204B4EB036F0ED150F8042BEBE7A5
:102E80004FEA132355E035F07F454DD10878FDE832
:102E90000445C0F1000070474FEA126203F0FF03DF
:102EA00047E002EA1C4482FA4CF594EA1345A5FA7D
:102EB0008CF50AD165B951F8043B84EA0204B4EBFD
:102EC000034F0CD150F8042BEBE74FEA134330E0EB
:102ED00015EA1C4528D10B884FEA124229E04FEA37
:102EE000124203EA1C4324E002F0FF0482FA4CF58C
:102EF00094EA1365A5FA8CF50AD165B951F8043B3B
:102F000084EA0204B4EB032F09D150F8042BEBE759
:102F10004FEA13630DE015F0FF0F05D10B684FEA80
:102F2000122223F07F4304E04FF00000FDE8044547
:102F3000704712BA1BBA82FA4CF482EA0304A4FA6C
:102F40008CF5B5FA85F402FA04F203FA04F34FEAB9
:102F50001260FDE80445A0EB13607047000000001C
:102F60000000000000000000000000000000000061
:102F70000000000000000000000000000000000051
:102F800090F800F06DE9024520F007016FF0000CA9
:102F900010F0070491F820F040F049804FF0000451
:102FA0006FF00700D1E9002391F840F000F108002C
:102FB00082FA4CF2A4FA8CF283FA4CF3A2FA8CF364
:102FC0004BBBD1E9022382FA4CF200F10800A4FACB
:102FD0008CF283FA4CF3A2FA8CF3E3B9D1E904231F
:102FE00082FA4CF200F10800A4FA8CF283FA4CF356
:102FF000A2FA8CF37BB9D1E9062301F1200182FA10
:103000004CF200F10800A4FA8CF283FA4CF3A2FA15
:103010008CF3002BC6D0002A04BF04301A4612BA23
:10302000B2FA82F2FDE8024500EBD2007047D1E926
:10303000002304F00305C4F100004FEAC50514F0B5
:10304000040F91F840F00CFA05F562EA05021CBF86
:1030500063EA050362464FF00004A9E7012B2DE95E
:10306000F84F41D0242B98463ED80F46DFF81CC1BC
:1030700000E02F463D4615F8014B1CF8046016F0A1
:103080000806F6D12D2C6CD02B2C0ABF95F800B079
:10309000A346BD1C002B46D0102B57D0002E14BFCA
:1030A0004FF000496FF000490027B9FBF8FEBC461D
:1030B00008FB1E9A07E0E64513D32FD00CFB084C03
:1030C000012715F801BBABF13004092C05D9ABF190
:1030D0004104192C0FD8ABF13704A34213DD002FA4
:1030E000E9DA4FF0FF37ECE7FFF740FB1623036008
:1030F0000020BDE8F88FABF16104192C03D8ABF1C7
:103100005704A342EBDC002F25DB0EB1CCF1000C01
:103110000AB177BB11606046BDE8F88FA245CDDAF1
:103120004FF0FF37CDE7BBF1300F03D04FF00A0867
:103130004346B3E72B7803F0DF03582B1BD14FF046
:10314000100895F801B043460235A7E7BBF1300FF0
:1031500015D09846A2E7222303603AB1691ECC46F7
:10316000D8E795F800B00126BD1C93E7CC46604631
:10317000D2E7E146F2E74FF0080843468EE72C78A5
:1031800004F0DF04582CDAD0984687E7718200708B
:1031900064E700BF10B4044C13460A460146206899
:1031A0005DF8044B5AE700BF0000002010B4044C47
:1031B00013460A46014620685DF8044B4EE700BFFF
:1031C000000000202DE9F843224C25680DB36C68FF
:1031D0001F2C3BDC984691460F46064688B1D5F831
:1031E000880028B3D0F8003140F824900122A24092
:1031F00000EB84011343022EC0F80031C1F8808037
:1032000010D0A31C01346C6045F823700020BDE889
:10321000F883114E114D2560002ED8D03468C5F8C2
:103220008840D4E7D0F804311A43C0F80421E8E715
:103230000B4B5BB14FF48470FFF7F0FA30B1002311
:103240006C68C0E94033C5F88800CDE74FF0FF3027
:10325000DDE700BF6001002000000000D400002076
:103260001D2800702DE9F04FDFF8908083B0D8F86A
:10327000005001900F464FF0010A8DB16C68D5F8EF
:103280008860013C0CD405F1080B67B12EB106F142
:10329000800353F82430BB4205D014F1FF34F4D23C
:1032A00003B0BDE8F08F6B685BF82420013BA342BC
:1032B00016BF00236C604BF82430002AEDD0D5F8FF
:1032C0000490B6B1D6F800110AFA04F30B4210D0FC
:1032D000D6F8040156F8241003420CD10198904707
:1032E0006B68D8F800204B4501D1AA42D5D01546CD
:1032F000C3E79047F4E708469047F1E760010020F4
:10330000704700BF704700BFFEE700BF80B586B0C2
:1033100000AF03460A46FB8013467B71B7F90630BF
:103320001B0A7B61FB8803F01F033B617B69072B52
:1033300006D90F4B0F4A40F2C1410F4804F07AFA08
:103340007B699A000D4B1344FB60FB681A680321EC
:103350003B6901FA03F3DB431A4079793B6901FACF
:1033600003F31A43FB681A6000BF1837BD4680BDDF
:1033700018790070748300702879007068C00F405D
:1033800080B582B000AF0346FB80B7F90630032159
:103390001846FFF7BBFF00BF0837BD4680BD80B4AD
:1033A00083B000AF786039607B683A68C3F88420E6
:1033B00000BF0C37BD465DF8047B704780B483B016
:1033C00000AF786039607B683A68C3F8882000BF36
:1033D0000C37BD465DF8047B7047000080B500AF38
:1033E00001220921054804F039FA044B5B68034ABD
:1033F00043F40073536000BF80BD00BF00801B40DA
:1034000080B586B000AFF860B9607A607B6804333D
:103410001B681846FFF7A2F978617B689B683B61DF
:103420007B69012B1DD113493869FFF72DFC034639
:10343000002B05D14FF400710F48FFF7BFFF14E0D8
:103440000E493869FFF720FC0346002B05D14FF4E5
:1034500000710948FFF7A3FF07E0094802F0F4FCF8
:1034600003E0084802F0F0FC00BF002318461837BC
:10347000BD4680BDD079007000801B40D4790070BB
:10348000D8790070F879007080B500AF00F0F8F9D5
:1034900000F0A6F800F040FD00F0E0F94FF48D7068
:1034A000FFF76EFFFFF79AFF0B4B0C4A1A600A4BAF
:1034B0001B680B4A11680B4A184601F0DFFE064BE9
:1034C0001B680949184601F081FF034B1B68184629
:1034D00001F012F9F9E700BF0C030020640100209D
:1034E00074030020107A00706400002080B586B05C
:1034F00000AF03460A46FB8013467B71B7F90630DE
:103500001B0A7B61FB8803F01F033B617B69072B70
:1035100006D90F4B0F4A40F2C1410F4804F08AF917
:103520007B699A000D4B1344FB60FB681A6803210A
:103530003B6901FA03F3DB431A4079793B6901FAED
:1035400003F31A43FB681A6000BF1837BD4680BDFD
:103550001C7A0070888300702C7A007068C00F405D
:1035600080B582B000AF0346FB80B7F90630032177
:103570001846FFF7BBFF00BF0837BD4680BD80B4CB
:1035800085B000AFF860B9607A603B60BB6803F05B
:103590000F01FB691B0103F01002FB680A431A606C
:1035A0007B68002B02D07B683A681A6000BF143732
:1035B000BD465DF8047B704780B485B000AFF8600D
:1035C000B9607A603B60BB69002B02D0BB69FA69C5
:1035D0001A6000BF1437BD465DF8047B70470000D9
:1035E00080B582B002AF40F20240FFF7B9FF00237E
:1035F00001932D4B00930023002205212B48FFF758
:10360000BEFF002301932A4B0093002300220921CF
:103610002848FFF7B4FF00230193274B00930023B2
:10362000002202212548FFF7AAFF00230193244B23
:1036300000930023002202212248FFF7A0FF224B23
:103640009B6E214B00229A6641F2B0030193164B08
:1036500000930023002205211448FFF7ADFF49F233
:10366000B1030193124B009300230022092111485A
:10367000FFF7A2FF41F2B00301930F4B0093002329
:10368000002202210D48FFF797FF41F2B00301939A
:103690000B4B00930023002202210A48FFF78CFF06
:1036A00000BFBD4680BD00BFD0821F40E0801F40EC
:1036B000D4821F40E4801F40DC821F40EC801F400A
:1036C000E0821F40F0801F4000C00A4080B483B0F9
:1036D00000AF78600B4A7B6843F0010353600A4BEC
:1036E0005B6A094A43F480335362BFF34F8F00BFD4
:1036F000BFF36F8F00BF00BF0C37BD465DF8047B82
:10370000704700BF90ED00E000ED00E080B400AF36
:10371000BFF35F8F00BF084B5B6A074A23F4803317
:103720005362064B5B68054A23F00103536000BFF8
:10373000BD465DF8047B704700ED00E090ED00E0D1
:1037400080B483B000AF78607B68DAB20C4B13446E
:103750001A687B685B0BC3F30C017B681B0A03F0E0
:103760001F0301FA03F31A407B681B0A03F01F03CF
:1037700022FA03F318460C37BD465DF8047B704708
:1037800000C00F4080B483B000AF78607B68DAB2CD
:103790000C4B13441A687B685B0BC3F30C017B680A
:1037A0001B0A03F01F0301FA03F31A407B681B0A8C
:1037B00003F01F0322FA03F318460C37BD465DF8E9
:1037C000047B704700C00F4080B400AF074BD3F8B4
:1037D000703203F01003002B02D1054B1B6800E090
:1037E000044B1846BD465DF8047B704700800D40D1
:1037F000A003002000366E0190B583B000AF1348DF
:10380000FFF79EFF0346002B10D1114803F02CFB5D
:103810000346104AA2FB03239C080F48FFF7B2FFA0
:1038200003460133B4FBF3F37B600AE0FFF7CCFF00
:1038300004460948FFF7A6FF03460133B4FBF3F340
:103840007B607B6818460C37BD4690BD24260080FF
:103850000D001000ABAAAAAA24E0078080B582B0B0
:1038600000AFFFF7C9FF78607B6801224FF4E131B8
:10387000012002F06DFA00BF0837BD4680BD000090
:10388000F0B587B000AFAA4B7B61AA4B3B61002328
:103890003B60A94B5B6903F40033B3F5003F16D1DD
:1038A000BFF34F8F00BFBFF36F8F00BFA24B5B69A9
:1038B000A14A23F4003353619F4B0022C3F85022E6
:1038C000BFF34F8F00BFBFF36F8F00BF00BF9A4B96
:1038D0005B6903F48033B3F5803F30D1964B00220F
:1038E000C3F88420BFF34F8F00BF934B5B69924AAC
:1038F00023F480335361BFF34F8F00BF8E4BD3F857
:103900008060730BC3F30E04F308C3F3090562016F
:1039100043F6E0731340AA0787491343C1F8743292
:103920002B465D1E002BF2D123465C1E002BEBD1F3
:10393000BFF34F8F00BFBFF36F8F00BF00BFFFF714
:10394000E5FE7E4B1022DA607C4B7D4A1A617B4B90
:103950007C4ADA60794B7C4A1A61784B7B4ADA60A0
:10396000764B794A1A61754B794ADA60734B794A1A
:103970001A61724B1422DA60704B774A1A616F4BEE
:103980001522DA606D4B754A1A616C4B744ADA6025
:103990006A4B724A1A61694B724ADA60674B724A23
:1039A0001A61664B714ADA60644B714A1A61634B63
:1039B000704ADA60614B704A1A6102E03B68013379
:1039C0003B603B683A6922FA03F3012BF6D83B6867
:1039D000002B37D07B693A69B3FBF2F2396901FBFE
:1039E00002F29B1A002B06D0644B654A4FF4B77164
:1039F000644803F01FFF3B6801229A403B699A42EA
:103A000006D0614B5E4A40F26F115E4803F012FF30
:103A10003B68042B06D85D4B594A4FF4B87159489E
:103A200003F008FF7B6923F01F03444A43F01A03A5
:103A3000D3603B68013B5B0003F03E023F49544BBF
:103A400013430B613D4B534ADA603C4B524A1A61B7
:103A50003A4B524ADA60394B514A1A610420FFF757
:103A600035FE354B5B6903F48033002B38D1324B84
:103A70000022C3F88420BFF34F8F00BF2E4BD3F832
:103A80008030FB60FB685B0BC3F30E03BB60FB681D
:103A9000DB08C3F309037B60BB685A0143F6E0739C
:103AA00013407A68920724491343C1F860327B6857
:103AB0005A1E7A60002BEFD1BB685A1EBA60002BE9
:103AC000E5D1BFF34F8F00BF1B4B5B691A4A43F42C
:103AD00080335361BFF34F8F00BFBFF36F8F00E0A0
:103AE00000BF154B5B6903F40033002B1BD1BFF300
:103AF0004F8F00BFBFF36F8F00BF0F4B0022C3F883
:103B00005022BFF34F8F00BFBFF36F8F00BF0A4B30
:103B10005B69094A43F400335361BFF34F8F00BF21
:103B2000BFF36F8F00E000BF00BF1C37BD46F0BD84
:103B3000000020200000000000ED00E090ED00E01B
:103B40003F001010110000803900100312000060C7
:103B5000130000702B0003063B0010032100030339
:103B6000160000201700202025000303180028203D
:103B7000230003031900008031000303587A00700A
:103B80009C830070707A0070A07A0070BC7A00701C
:103B9000010008031B0000402B0010031C00004222
:103BA0002700100380B584B000AF786039607B686F
:103BB0009B0EFB607B68DAB2214B13441A687B686A
:103BC0005B0BC3F30C017B681B0A03F01F0301FAB4
:103BD00003F3DB4302EA03017B681B0A03F01F03C4
:103BE0003A689A407B685B0BC3F30C007B681B0A46
:103BF00003F01F0300FA03F31A407B68D8B2104B9E
:103C00000344184641EA02030360FB68202B06D9EF
:103C10000C4B0D4A40F27A410C4803F00BFEFB6856
:103C2000202B09D000BF064B9A6CFB6822FA03F3E5
:103C300003F00103002BF6D100BF1037BD4680BD55
:103C400000C00F40C47A0070EC830070E47A00700A
:103C500080B584B000AF786039607B689B0EFB60F4
:103C60007B68DAB2214B13441A687B685B0BC3F3A1
:103C70000C017B681B0A03F01F0301FA03F3DB430B
:103C800002EA03017B681B0A03F01F033A689A40AB
:103C90007B685B0BC3F30C007B681B0A03F01F03FC
:103CA00000FA03F31A407B68D8B2104B034418465D
:103CB00041EA02030360FB68202B06D90C4B0D4A36
:103CC00040F29F410C4803F0B5FDFB68202B09D062
:103CD00000BF064B9A6CFB6822FA03F303F0010362
:103CE000002BF6D100BF1037BD4680BD00C00F408D
:103CF000C47A0070DC830070E47A007080B586B00E
:103D000000AF03460A46FB8013467B71B7F90630C5
:103D10001B0A7B61FB8803F01F033B617B69072B58
:103D200006D90F4B0F4A40F2C1410F4803F082FD04
:103D30007B699A000D4B1344FB60FB681A680321F2
:103D40003B6901FA03F3DB431A4079793B6901FAD5
:103D500003F31A43FB681A6000BF1837BD4680BDE5
:103D6000107B0070C8830070E47A007068C00F4058
:103D700080B582B000AF0346FB80B7F90630002162
:103D80001846FFF7BBFF00BF0837BD4680BD0000E7
:103D900080B483B000AF7860044A7B68136000BFD2
:103DA0000C37BD465DF8047B704700BFA0030020C0
:103DB00080B483B000AF7860044A7B68136000BFB2
:103DC0000C37BD465DF8047B704700BFA40300209C
:103DD00080B485B000AFF860B9601346FB71FB7921
:103DE000002B0BD0BB681B0CC3F30B02FB68134406
:103DF00004331A464FF4803313600AE0BB681B0C8F
:103E0000C3F30B02FB68134408331A464FF48033A4
:103E1000136000BF1437BD465DF8047B7047000097
:103E200080B485B000AFF860B9601346FB71BA6822
:103E30000C4B1340BB60FB79002B06D0FB685A6823
:103E4000BB681A43FB685A6006E0FB685A68BB68A7
:103E5000DB431A40FB685A6000BF1437BD465DF86B
:103E6000047B704700F0FFFF80B485B000AF78603E
:103E70000B46FB701346BB70FB78032B12D97B6893
:103E80005A68FB78032101FA03F3DB431340FB601C
:103E9000BB7803F00302FB789A40FB681A437B6807
:103EA0005A6011E07B685A68FB78072101FA03F336
:103EB000DB431340FB60BB7803F00702FB789A40BA
:103EC000FB681A437B685A6000BF1437BD465DF833
:103ED000047B704780B485B000AF78600B46FB7000
:103EE0001346BB707B689A680A4B1340FB60FB78F3
:103EF0009B0603F08062FB681A43BB781B0403F443
:103F00007F031A437B689A6000BF1437BD465DF893
:103F1000047B7047FFFF00FB80B500AF00F002F8A4
:103F200000BF80BD80B582B000AF4FF40040FFF706
:103F30003FFFDD4BD3F8C032DB4A43F48033C2F895
:103F4000C032D94BD3F8C032D74A23F40033C2F879
:103F5000C032D648FFF71CFF002002F073FE02F0CB
:103F6000C7FE012002F0AAFED14B1B6823F0FF031D
:103F7000CF4A43F07F0313600121CE48FFF712FEC2
:103F80000121CD48FFF70EFECC4BDB6823F01F0369
:103F9000CA4A43F01303D36000BFC84B1B6803F049
:103FA0000043B3F1004FF8D10021C548FFF750FEA0
:103FB0004FF48870FFF7DCFE4FF48470FFF7D8FEF3
:103FC00040F21620FFF7D4FE4FF40670FFF7D0FE44
:103FD00040F20E20FFF7CCFE0321BA48FFF738FE6F
:103FE0000121B948FFF734FE0021B848FFF730FE41
:103FF0004FF48A70FFF7BCFE4FF48B70FFF7B8FEEA
:104000001820FFF7B5FE1A20FFF7B2FE4FF48670B6
:10401000FFF7AEFE0121AE48FFF71AFE40F2026044
:10402000FFF7A6FE0121AB48FFF712FE0021AA48C8
:10403000FFF7B8FD40F20460FFF79AFE0121A748A0
:10404000FFF706FE0021A648FFF7ACFD4FF44170D4
:10405000FFF78EFE07214FF21400FFF7F9FD002154
:10406000A048FFF79FFD00219F48FFF79BFD40F20E
:104070000A60FFF77DFE01219C48FFF7E9FD03215F
:104080009B48FFF78FFD40F20220FFF771FE0121F0
:104090009848FFF7DDFD00219748FFF783FD4FF4B7
:1040A0008070FFF765FE4FF48170FFF761FE4FF4FB
:1040B0008270FFF75DFE4FF48370FFF759FE042115
:1040C0008E48FFF7C5FD02218D48FFF76BFD1620D6
:1040D000FFF74EFE03218B48FFF7BAFD00218A4807
:1040E000FFF760FD40F21250FFF742FE03218748C0
:1040F000FFF7AEFD01218648FFF7AAFD00218548A4
:10410000FFF750FD40F21450FFF732FE03218248C2
:10411000FFF79EFD01218148FFF79AFD00218048AD
:10412000FFF740FD40F21650FFF722FE03217D48C5
:10413000FFF78EFD01217C48FFF78AFD00217B48B7
:10414000FFF730FD40F20620FFF712FE4FF4027039
:10415000FFF70EFE40F20A20FFF70AFE0021744826
:10416000FFF776FD00217348FFF71CFD0E20FFF7D7
:10417000FFFD1220FFF7FCFD40F20670FFF7F8FD8F
:104180001020FFF7F5FD1420FFF7F2FD4FF4E1607A
:10419000FFF7EEFD01216848FFF75AFD022167484D
:1041A000FFF700FD4FF4A360FFF7E2FD1C20FFF7CF
:1041B000DFFD0C20FFF7DCFD4FF48C70FFF7D8FD1E
:1041C00040F20230FFF7D4FD40F20630FFF7D0FD99
:1041D00040F21A50FFF7CCFD40F20E60FFF7C8FD29
:1041E00000215748FFF734FD00215648FFF7DAFC5D
:1041F00040F20A30FFF7BCFD01215348FFF728FDCC
:1042000003215248FFF724FD05215148FFF7CAFC5E
:1042100040F20E50FFF7ACFD01214E48FFF718FDAC
:1042200007214D48FFF714FD03214C48FFF7BAFC66
:1042300040F20250FFF79CFD01214948FFF708FDBD
:1042400007214848FFF704FD03214748FFF7AAFC70
:104250004FF44070FFF78CFD01214448FFF7F8FC54
:1042600007214348FFF7F4FC03214248FFF79AFC7B
:1042700000214148FFF796FC404802F04BFD4048C2
:1042800002F07CFD1B21002002F0FAFF102101202A
:1042900002F0F6FF1821022002F0F2FF10210320A5
:1042A00002F0EEFF6EE000BF00800D4000366E01B0
:1042B00000C00F40186C0080143900140000084042
:1042C00014EA00041468008010E0004014FB008031
:1042D0001CE0078024EB00801C30008024F000806C
:1042E0001C31008014270080142600801CF70080F9
:1042F0001C7D00803CEB00803C69008018FA008047
:104300001864008024790080186E008028E6008000
:1043100028E007801C6A00802CE600802CE00780E3
:104320001C6C008028F6008028F007801C6E00803E
:1043300038F307803832008020E207802068008050
:1043400024E007802426008038EC008018F70080E5
:1043500038EF008030F9008030F600803074008043
:1043600030EC008030E900803067008028E9008070
:1043700028F90080207300800C200080AC8300703E
:10438000B483007002F054FD01228C498C48FFF781
:104390001FFD8B4BD3F87031894A23F40043C2F8D8
:1043A0007031874BD3F87031854A23F40003C2F88B
:1043B0007031834B1B6F824A43F400531367804B69
:1043C000D3F8A0307E4A23F40053C2F8A0307C4BCF
:1043D000D3F8A03023F4E033794A43F48033C2F8B1
:1043E000A030774B0022C3F8B020754B0122C3F8F0
:1043F000C020734BD3F8A030724A1A4042F21F0318
:1044000013437B607B6843F400237B606C4BD3F8E1
:1044100070316B4A43F04043C2F87031684A7B68A0
:10442000C2F8A03000BF664BD3F8A030002BFADAF8
:10443000002265496248FFF7CBFC02F007FD01222C
:1044400062495F48FFF7C4FC5D4BD3F8E03023F0CE
:1044500003035B4A43F00103C2F8E030584BD3F842
:10446000E030574A43F40053C2F8E030544BD3F8DD
:10447000E030534A23F00C03C2F8E030504BD3F83D
:10448000E0304F4A43F48013C2F8E0304C4BD3F88D
:10449000E0304B4A43F40013C2F8E03002F0BCFCB9
:1044A00001224B494648FFF793FC454B1B6A444A9F
:1044B00043F40053136203214648FFF773FB0021C6
:1044C0004548FFF76FFB00214448FFF76BFB0021D5
:1044D0004348FFF767FB3A4BD3F86031384A23F083
:1044E0001F03C2F860313F4B1B6E3E4A23F070033E
:1044F00013663C4B1B6E23F00F033A4A43F0010353
:104500001366384B1B6E374A23F460031366354B32
:104510001B6E23F4F813334A43F490131366314BA4
:104520001B6E304A23F4807313662E4B1B6E2D4A8C
:1045300023F0800313662B4B1B6E2A4A23F08073F3
:104540001366002200212848FFF78EFC0022032179
:104550002548FFF789FC002206212348FFF784FC49
:10456000002208212048FFF77FFC00220A211E4874
:10457000FFF77AFC002200211B48FFF7ABFC00226A
:104580004FF400511848FFF74BFC00224FF48041D4
:104590001548FFF745FC144B5B69134A23F0805321
:1045A0005361114B5B69104A23F0005353610F4B69
:1045B0000F4A1A6000BF0837BD4680BD0D0070006D
:1045C00000800D4080CFFFFF0D00A0000D00E00037
:1045D0000D0020001872008014390014186C00803F
:1045E0001C26008000C00F4000C00A40AC00002024
:1045F0000046C32380B483B000AFEFF310833B6069
:104600003B687B6072B600BF7B6818460C37BD46BE
:104610005DF8047B704780B485B000AF78607B683C
:10462000FB60FB6883F3108800BF00BF1437BD46F2
:104630005DF8047B704780B586B000AFF860B96064
:104640003B601346FB7100237B61FB683B610023E9
:104650007B6128E0BB681B683E2B15DD3B69586910
:104660003B6903F59271BB681B681A4601F09CFD1B
:104670003B69D3F86431BA6812681A443B69C3F8DD
:104680006421BB6800221A60BB681B683A69134446
:10469000FA7983F82421BB681B685A1CBB681A602E
:1046A0007B6901337B617A693B689A42D2DB00BF48
:1046B00000BF1837BD4680BD80B586B000AFF8603A
:1046C000B9607A60FB687B610A4BFA687968B86800
:1046D00001F09AF903463B617B69D3F864213B6999
:1046E0001A447B69C3F864213B6918461837BD46F4
:1046F00080BD00BF3746007090B589B000AF7860CC
:104700007B683B613B69002B00F06A823B690022B9
:1047100083F870213B6993F87131002B19D03B6904
:10472000DB69002B07D03B69DB69184601F015FDFA
:104730003B690022DA613B695B69002B00F04D8226
:104740003B695B69184601F0B0FC3B6900225A6185
:1047500043E207F10F031946386900F07BFD034679
:10476000002B40F03C82FB7B1B2B04D13B690122D8
:1047700083F86C212AE23B6993F86C31012B0CD150
:10478000FB7B5B2B04D13B69022283F86C211DE289
:104790003B69002283F86C2139E13B6993F86C3165
:1047A000022B7ED13B69002283F86C21FB7B413BCD
:1047B000032B6CD801A252F823F000BFCD47007044
:1047C00003480070554800702F4800703B69B3F8EB
:1047D0006831DBB21946386900F0B4FB3B69B3F8C5
:1047E00068311A463B69B3F86A31013B9A4250D2AC
:1047F0003B69B3F8683101339AB23B69A3F8682189
:1048000047E03B69B3F86831DBB21946386900F01C
:1048100099FB3B69B3F86831002B3CD03B69B3F896
:104820006831013B9AB23B69A3F8682133E03B69E8
:1048300093F86F31002B30D001229E49386900F087
:104840004BFE3B6993F86F31013BDAB23B6983F869
:104850006F2122E03B6993F86F213B6993F86E3139
:104860009A421CD23B6993F86F3120333A69134462
:10487000043301221946386900F0DEFD3B6993F8E4
:104880006F310133DAB23B6983F86F2107E000BF73
:104890009CE100BF9AE100BF98E100BF96E100BF34
:1048A00094E1FB7B092B25D10023FB6107E001226A
:1048B0008049386900F010FEFB690133FB613B69F8
:1048C00093F86F311A46FB699342F0D3386900F0D0
:1048D000A5FB3B6924331846FEF752FB0346DAB2C8
:1048E0003B6983F86E213B6993F86E213B6983F83D
:1048F0006F216BE1FB7B7F2B03D0FB7B082B40F010
:1049000086803B6993F86F31002B00F05C813B6936
:1049100093F86E31013BDAB23B6983F86E213B6953
:1049200093F86F31013BDAB23B6983F86F213B6941
:1049300093F86E213B6993F86F319A4258D93B69DD
:1049400093F86F3120333A691344181D3B6993F88B
:104950006F31013320333A691344191D3B6993F8D1
:104960006E311A463B6993F86F31D31A1A46FDF738
:10497000FFFF3B6993F86E311A463B6913440022EE
:1049800083F8242001224B49386900F0A5FD3B69DA
:1049900093F86F3120333A6913441C1D3B6993F837
:1049A0006F3120333A69134404331846FEF7E8FAAE
:1049B00003461A462146386900F03EFD03223E496F
:1049C000386900F089FD3B6993F86F31BB6107E0FE
:1049D00001223849386900F07FFDBB690133BB61B2
:1049E0003B6993F86E311A46BB699342F0D9EDE00A
:1049F00003223249386900F06FFD3B6993F86E314C
:104A00001A463B691344002283F82420DEE03B6908
:104A100093F86E313E2B03D93B69002283F86E2157
:104A2000FB7B0D2B02D0FB7B0A2B4DD1244B1B783B
:104A3000002B05D0224B1A78FB7B9A4240F0C580B0
:104A4000FA7B1F4B1A7002221E49386900F044FDA0
:104A50003B6924331846FEF793FA0346002B05D032
:104A60003B6924331946386900F012F93B691C6A26
:104A70003B691B6A1846FEF783FA03461A4621462D
:104A8000386900F0D9FC3B69002283F86E213B694C
:104A900093F86E213B6983F86F213B690022A3F8EC
:104AA00068213B692433402200211846FDF7C8FFE6
:104AB0008CE000BF7C7B0070807B0070847B00708A
:104AC00050030020887B00703B6993F86F213B699D
:104AD00093F86E319A424ED23B6993F86F310133AD
:104AE00020333A691344181D3B6993F86F31203322
:104AF0003A691344191D3B6993F86E311A463B69B4
:104B000093F86F31D31A1A46FDF732FF3B6993F8D9
:104B10006F311946FA7B3B690B4483F824203B69CB
:104B200093F86F3120333A6913441C1D3B6993F8A5
:104B30006F3120333A69134404331846FEF720FAE4
:104B400003461A462146386900F076FC3B6993F823
:104B50006F317B6107E001222349386900F0BCFC1A
:104B60007B6901337B613B6993F86E311A467B693F
:104B70009342F0D314E03B6993F86E311946FA7B07
:104B80003B690B4483F824203B6993F86E31203352
:104B90003A691344043301221946386900F04CFC89
:104BA0000023FB733B6993F86E310133DAB23B6942
:104BB00083F86E213B6993F86F310133DAB23B69B8
:104BC00083F86F2102E000BF00E000BF3B6993F86B
:104BD0007131002B3FF49EAD02E000BF00E000BF4A
:104BE00000BF2437BD4690BD7C7B007090B589B076
:104BF00000AFF860B9607A60FB68BB61BB691846BA
:104C000002F012FDF8611FE0FB69103B7B617B69DC
:104C10005B68002B14D07B695B681846FEF7B0F91F
:104C20000346002B0CD07B695C687B695B68184687
:104C3000FEF7A6F903461A462146B86900F0FCFBC8
:104C4000F86902F0FDFCF861FB69002BDCD1002360
:104C500018462437BD4690BD80B586B000AFF860D9
:104C6000B9607A60FB687B610848FEF789F9034602
:104C70001A460649786900F02FFC7B69012283F807
:104C80007121002318461837BD4680BD8C7B00700B
:104C900090B5C9B000AF3B1D18603B4619600023BA
:104CA000C7F81C3107F1080318464FF480731A4601
:104CB0000021FDF7C5FE012387F81731002387F88F
:104CC00016313B461868FEF75BF9034687F8153145
:104CD00097F8151107F108023B46186800F03AFAF8
:104CE000C7F81001D7F81031002B73DD3B1D1B688E
:104CF000184602F099FCC7F818015EE0D7F81831A1
:104D0000103BC7F81C31D7F81C311B68C7F80C31B1
:104D1000D7F80C01FEF734F9034687F80B3197F802
:104D20000B313A46126813441B78202B07D097F8B2
:104D30000B313A46126813441B78002B37D107F128
:104D400008031B6897F80B211946D7F80C0100F0EF
:104D5000DBF90346002B2AD1D7F81C311B7BFF2B34
:104D600003D1002387F817312CE0D7F81C311B7BC7
:104D7000002B07D1D7F81031012B03D1002387F87E
:104D800017311FE0D7F81C311B7B002B0BD0D7F855
:104D90001031013BD7F81C21127B934212D1002322
:104DA00087F817310EE0012387F817310AE0D7F8AA
:104DB000180102F045FCC7F81801D7F81831002B8C
:104DC0009CD100E000BFD7F81831002B02D100239E
:104DD000C7F81C31D7F81C31002B0DD097F81731CC
:104DE000012B09D15548FEF7CBF802463B1D53492C
:104DF000186800F071FB9CE0D7F81C31002B00F024
:104E00008F803B461868FEF7BBF8034687F81531DC
:104E10003B1D1B6803F164043B461868FEF7B0F8BD
:104E200003461A463B462146186800F06DF90346D2
:104E3000DBB297F815219A4267D0022387F8163122
:104E400036E097F816313A1D9B016033126813441F
:104E50000433402200211846FDF7F2FD97F8163181
:104E6000013B3A1D9B01603312681344043318461A
:104E7000FEF786F8034687F8153197F816313A1D84
:104E80009B01603312681344181D97F81631013BDB
:104E90003A1D9B01603312681344043397F81521BF
:104EA0001946FDF7CBFC97F81631013B87F8163110
:104EB00097F81631002BC4D13B1D1B686433402288
:104EC00000211846FDF7BCFD3B461868FEF758F870
:104ED000034687F815313B1D1B6803F1640097F802
:104EE00015213B461968FDF7A9FC3B1D1B68B3F86B
:104EF0006A31022B09D83B1D1B68B3F86A310133B4
:104F00009AB23B1D1B68A3F86A21D7F81C319B6835
:104F100007F10802381DD7F810110068984708E01B
:104F20000748FEF72DF802463B1D0549186800F0BA
:104F3000D3FA00BF07F59277BD4690BDA07B007005
:104F4000FC7B007090B585B000AF78600B46FB70BD
:104F50007B6893F86430002B04D17B680022A3F8AF
:104F6000682156E07B6824331846FEF709F8B860DC
:104F7000BB68002B15D07B682433BA680021184623
:104F8000FDF75EFD0023FB6007E0032222497868FD
:104F900000F0A2FAFB680133FB60FA68BB689A4232
:104FA000F3D3FB789B0160337A68134404331846CB
:104FB000FDF7E6FF0346DAB27B6883F86E217B6873
:104FC00093F86E217B6883F86F217B6803F12400DE
:104FD000FB789B0160337A681344191D7B6893F852
:104FE0006E311A46FDF72AFCFB789B0160337A6824
:104FF00013441C1DFB789B0160337A68134404330F
:105000001846FDF7BDFF03461A462146786800F0B2
:1050100013FA1437BD4690BD847B007090B589B0FB
:1050200000AF786000233B614023FB6100237B617C
:105030007B6893F82430002B05D10022002178688A
:10504000FFF7D4FD58E002222D49786800F044FAB9
:105050007B68184602F0E8FAB8612EE0BB69103BA5
:105060003B613B691B68FB607B6803F124047B6840
:1050700024331846FDF784FF03461A46F968204694
:1050800000F042F80346002B13D1FA681D497868F6
:1050900000F04AFAF868FDF773FF03461A46FB6909
:1050A000934206DDFB687B617869FDF769FF034683
:1050B000FB61B86902F0C4FAB861BB69002BCDD1BD
:1050C0007B69002B06D07B682433FA69796918461E
:1050D000FDF7B4FB786800F085FA7B6803F12404DF
:1050E0007B6824331846FDF74BFF03461A462146DA
:1050F000786800F0A1F900BF2437BD4690BD00BF1D
:10510000887B0070507C007080B485B000AFF86080
:10511000B9607A6012E0FB685A1CFA601A78BB68C2
:10512000591CB9601B789A4208D0FB68013B1B7878
:105130001A46BB68013B1B78D31A05E07B685A1EF0
:105140007A60002BE7D1002318461437BD465DF87E
:10515000047B704780B588B000AFF860B9607A60B2
:10516000BB6801331A4600213948FDF769FCBA686B
:10517000F9683748FDF762FB354BBB6100237B6163
:105180000023FB6158E0BB6900221A70BB69013340
:10519000BB617B6901337B617A69BB689A4203D248
:1051A000BB691B78202BEED07A69BB689A4248D243
:1051B000BB691B78222B27D1BB690133BB617B699B
:1051C00001337B61FB699B007A681344BA691A60FA
:1051D000FB690133FB6105E0BB690133BB617B699E
:1051E00001337B61BB691B78222B03D07A69BB68D2
:1051F0009A42F1D3BB6900221A70BB690133BB61CB
:105200007B6901337B6117E0FB699B007A6813447B
:10521000BA691A60FB690133FB6105E0BB690133C0
:10522000BB617B6901337B61BB691B78202B03D099
:105230007A69BB689A42F1D37A69BB689A42ABD368
:1052400000E000BFFB6918462037BD4680BD00BFA7
:105250001003002080B584B000AF786039607B68AF
:10526000DB6901223968184600F0AEFF0346FB8176
:10527000FB8918461037BD4680BD000080B586B05A
:1052800000AFF860B9607A6043F22153FB82FB689B
:10529000002B06D1424B434A40F25931424802F0BA
:1052A000C9FABB68002B06D1404B3E4A40F25B3145
:1052B0003D4802F0BFFA7B68002B06D13C4B394ACF
:1052C00040F25D31384802F0B5FAFB683B614FF4BB
:1052D000D4720021F868FDF7B3FB3B697A681A6263
:1052E0003B69BA68DA603B6903F110023B695A61B5
:1052F0003B69DA683B695B691946104600F0ADFE10
:105300000346FB82FB8A002B06D02A4B254A4FF42A
:105310006471254802F08EFA3B6903F118023B697B
:10532000DA613B69DA683B69DB691946104600F0CF
:10533000E4FE0346FB82FB8A002B06D01D4B194A74
:105340004FF46571184802F075FA1B49386900F08E
:105350003DF81A49386900F039F81948FDF710FE90
:1053600003461A461649386900F0B6F81548FDF7A5
:1053700007FE03461A461349386900F0ADF8124893
:10538000FDF7FEFD03461A460F49386900F0A4F800
:10539000386900F027F9002318461837BD4680BD4C
:1053A000587C0070FC830070647C0070907C0070FE
:1053B000A07C0070A87C00707C000020940000207D
:1053C000D07C0070E07C0070EC7C007080B584B014
:1053D00000AF786039607B68FB607B68002B06D18A
:1053E000114B124A4FF46B71114802F023FA3B68DB
:1053F000002B06D10F4B0D4A40F2AD310C4802F0A4
:1054000019FA3B681033082200211846FDF718FBF3
:10541000FA683B6810331946104602F0CFF80023B3
:1054200018461037BD4680BD587C00700884007057
:10543000647C0070087D007080B588B000AFF860B3
:10544000B9607A60FB68002B06D11F4B1F4A40F2FF
:10545000C9311F4802F0EEF9BB68002B06D11D4B85
:105460001A4A40F2CA311A4802F0E4F97B68002B6C
:1054700001D1002324E0FB68FB61FFF7BBF8B861B2
:10548000FB6993F87231002B05D0B869FFF7C3F8B8
:1054900043F2B16314E0FB69012283F87221B86919
:1054A000FFF7B9F8FB695B697A68B968184600F0DC
:1054B0007BFE0346FB82FB69002283F87221FB8A94
:1054C00018462037BD4680BD587C0070208400708F
:1054D000647C0070187D007080B5A4B000AFF860E7
:1054E000B9607A607B68802B06D90C4B0C4A40F27D
:1054F000F5310C4802F09EF907F110037A68B9689B
:105500001846FDF79BF907F110037A681946F86809
:10551000FFF792FF00BF9037BD4680BD207D007031
:105520002C840070647C00700EB480B587B000AF2E
:1055300078607B68002B06D1264B274A40F2024157
:10554000264802F077F97B6A002B06D1244B224AC9
:1055500040F20341214802F06DF97B687B61FFF75F
:1055600049F838617B6993F87231002B05D03869AE
:10557000FFF751F84FF0FF3324E07B69012283F8F5
:1055800072213869FFF747F807F12803BB607B6990
:105590000022C3F86421BA68796A7868FFF78CF84A
:1055A0000346FB607B6958697B6903F59273FA686F
:1055B000194600F0F9FD7B69002283F872217B69AE
:1055C000D3F8643118461C37BD46BDE8804003B0AF
:1055D000704700BF587C007040840070647C00708D
:1055E000307D007090B585B000AF78607B68002B8F
:1055F00006D10F4B0F4A40F237410F4802F01AF91B
:105600007B68FB6002220D49F868FFF765FFFB68C5
:105610001C6AFB681B6A1846FDF7B2FC03461A4673
:105620002146F868FFF708FF00BF1437BD4690BD5C
:10563000587C007050840070647C0070887B00701F
:1056400080B485B000AF786039600023FB60002330
:10565000FB7220E07B681B685A1C7B681A607B68C1
:105660001B681B78BB72BB7A2F2B0DD9BB7A392BE9
:105670000AD8FA6813469B0013445B001A46BB7AAB
:105680001344303BFB6006E07B681B685A1E7B6856
:105690001A600123FB72FB7A002BDBD0FB681846F3
:1056A0001437BD465DF8047B704780B489B000AF05
:1056B000F860B9607A60FB681B68FB610623BB6118
:1056C0000023FB75FB690133FB61FB691B782E2B03
:1056D00024D10023BB610023FB751BE0FB69013370
:1056E000FB61FB691B78BB75BB7D2F2B0DD9BB7D87
:1056F000392B0AD8BA6913469B0013445B001A463B
:10570000BB7D1344303BBB6104E0FB69013BFB61A3
:105710000123FB75FB7D002BE0D002E0FB69013B20
:10572000FB61FB68FA691A60BB6918462437BD46FD
:105730005DF8047B704780B485B000AF0346FB7111
:105740000023FB60FB796F2B08D0FB79622B05D01F
:10575000FB79702B02D0FB79752B01D10123FB6003
:10576000FB6818461437BD465DF8047B704780B46B
:1057700085B000AF0346FB710023FB60FB79642B0F
:1057800002D0FB79692B01D10123FB60FB6818462D
:105790001437BD465DF8047B704790B585B000AF07
:1057A000F860B9607A60FB70BA687B68D31A7C6A6B
:1057B0002022F96AB86AA04708E03B6A5A1E3A629A
:1057C0001A787C6A0123F96AB86AA0473B6A1B7899
:1057D000002BF2D100BF00BF1437BD4690BD90B57D
:1057E00085B000AFF860B9607A60FB70BA687B681A
:1057F000D31A7C6A2022F96AB86AA04708E03B6A9B
:105800005A1E3A621A787C6A0123F96AB86AA0477C
:105810003B6A1B78002BF2D100BF00BF1437BD4696
:1058200090BD80B485B000AF0346FB710023FB60E0
:10583000FB79662B02D0FB79462B01D10123FB605B
:10584000FB6818461437BD465DF8047B704780B48A
:1058500085B000AF0346FB710023FB60FB79782B1A
:1058600002D0FB79582B01D10123FB60FB6818465D
:105870001437BD465DF8047B704780B485B000AF37
:1058800078607B681B68FB60FB680133FB60FB682A
:105890001B78FB72FB7A682BF6D0FB7A6C2BF3D06B
:1058A000FB68013BFB607B68FA681A6000BF143735
:1058B000BD465DF8047B704780B485B000AF0346F9
:1058C000FB71FB796F2B02D10823FB730DE0FB7991
:1058D000622B02D10223FB7307E0FB79702B02D10C
:1058E0001023FB7301E00A23FB73FB7B184614377C
:1058F000BD465DF8047B704780B48DB000AFF860A2
:10590000B9607A603B600023FB61FB68BB61BB69E7
:105910005A1CBA6100221A707B68002B33D0BB6816
:105920001B68FB62FB6A002B29D1BB6930221A700D
:10593000FB690133FB61FB6960E0FA6A3B6892FB3B
:10594000F3F33B613B693A6802FB03F3FA6AD31A4B
:10595000BB62BB6A002B04DABB6AC3F13003BB62D3
:1059600002E0BB6A3033BB623B69FB62BB695A1C15
:10597000BA61BA6AD2B21A70FB690133FB61FB6A81
:10598000002BDAD139E0BB681B687B627B6A002B95
:1059900030D1BB6930221A70FB690133FB61FB69AE
:1059A0002CE03B687A6AB2FBF3F37B613B687A696F
:1059B00002FB03F37A6AD31A3B623B6A092B03D8D2
:1059C0003B6A30333B620AE097F83830002B01D055
:1059D000412200E061223B6A13440A3B3B627B693F
:1059E0007B62BB695A1CBA613A6AD2B21A70FB690F
:1059F0000133FB617B6A002BD3D1FB691846343736
:105A0000BD465DF8047B704790B59FB004AFF86069
:105A1000B9607A603B600023FB650023BB6500230F
:105A2000FB61002387F8573000237B61FB687B64B0
:105A30007B6C1B78002B00F029817B6C1B7887F82E
:105A4000563097F85630252B0BD097F8562007F193
:105A50001C013C6801237868A0477B6C01337B64A0
:105A600013E1012387F8633007F1080207F14403CB
:105A700011461846FFF7E4FD386507F1080107F104
:105A8000440300221846FFF710FEF86407F14403B0
:105A90001846FFF7F2FE7B6C01337B647B6C1B784E
:105AA00087F8563097F856301846FFF760FE0346E1
:105AB000012B25D1BB681A1DBA601B68BB6107F1B9
:105AC000180107F1200097F8633000930A230122A0
:105AD000FFF712FFB86507F12002BB6D1344FB65A9
:105AE000BA6D07F11C0303937B6802933B68019333
:105AF000FB6D00930023396D0020FFF74EFEC1E0DF
:105B000097F856301846FFF78CFE0346012B06D156
:105B1000BB68073323F007030833BB60B2E097F894
:105B200056301846FFF793FE0346012B2ED197F807
:105B30005630782B02D1002387F86330BB681A1DDA
:105B4000BA601B687B6107F1140107F1200097F828
:105B50006330009310230022FFF7CEFEB86507F1F3
:105B60002002BB6D1344FB65BA6D97F8631007F113
:105B70001C0303937B6802933B680193FB6D0093C6
:105B80000B46396D0020FFF72AFE7BE097F8563070
:105B90001846FFF7D0FD0346012B2FD1BB681A1D15
:105BA000BA601B687B6197F856301846FFF784FE91
:105BB000034687F8573097F8572007F1140107F18B
:105BC000200097F86330009313460022FFF794FEFD
:105BD000B86507F12002BB6D1344FB65BA6D07F190
:105BE0001C0303937B6802933B680193FB6D009356
:105BF0000023396D0020FFF7D0FD43E097F85630C1
:105C0000632B0DD1BB681A1DBA601B68BB64BB6CEB
:105C1000DAB207F11C013C6801237868A04731E043
:105C200097F85630732B25D1BB681A1DBA601B68D4
:105C30007B667B6E002B25D0786EFDF7A1F90346BD
:105C4000BB653A6DBB6DD31A07F11C013C6820227D
:105C50007868A04709E07B6E5A1C7A661A7807F1CB
:105C60001C013C6801237868A0477B6E1B78002BE1
:105C7000F1D107E097F8562007F11C013C68012399
:105C80007868A0477B6C01337B64D1E600BFFB6979
:105C900018466C37BD4690BD80B584B000AF7860C3
:105CA00039607B68002BFCD03B68002BFCD00C4B90
:105CB0001B68002B01D100230DE03A687968094880
:105CC00000F072FA0346FB81FB89002B01D13B688F
:105CD00001E04FF0FF3318461037BD4680BD00BFCE
:105CE000740300206C03002080B586B000AFF8601C
:105CF000B9603B601346FB7100237B6100237B612D
:105D00001CE0BB681B6801337F2B08D9BB681B688C
:105D10001946F868FFF7C0FFBB6800221A60BB682D
:105D20001B681A46FB681344FA791A70BB681B6833
:105D30005A1CBB681A607B6901337B617A693B68D6
:105D40009A42DEDB00BF00BF1837BD4680BD0000B1
:105D500080B58EB000AFB9607B600346FB7313461D
:105D6000BB730023FB867B687B61BB68BB61002340
:105D70003B7700237B770123BB770123FB7700234D
:105D800087F82030002387F82130FB7B87F822300A
:105D9000BB7B87F82C3048F64173FB85BB7B012B1E
:105DA00003D107F114033B6317E0BB7B022B03D144
:105DB00043F22153FB8610E0BB7B032B03D143F25C
:105DC0002153FB8609E0BB7B042B03D143F2215313
:105DD000FB8602E043F22153FB86FB8E43F2215205
:105DE000934223D0202200211348FCF729FE124BB6
:105DF000124A1A60104B1B6807F12402114618461C
:105E000000F0FBF80346FB86FB8E002BFCD10A4B0F
:105E10001B680B49184600F020F90346FB86FB8EF1
:105E2000002BFCD1044B1B68064A1360FB8E1846FE
:105E30003837BD4680BD00BF540300205803002002
:105E40006C030020740300200FB480B5A4B000AF31
:105E50000023C7F888300023C7F88C3000237B600C
:105E600007F108037C2200211846FCF7E9FD124BDC
:105E70001B68002B16D007F19C03C7F884303A1D2D
:105E80000E4BD7F88410D7F89800FFF7BDFDC7F880
:105E90008800D7F888203B1D11461846FFF7FCFE06
:105EA000C7F88C00D7F88C3018469037BD46BDE84F
:105EB000804004B0704700BF74030020E95C0070AC
:105EC00080B483B000AFEFF310833B603B687B602E
:105ED00072B600BF7B6818460C37BD465DF8047B80
:105EE000704780B485B000AF78607B68FB60FB686A
:105EF00083F3108800BF00BF1437BD465DF8047BF4
:105F0000704780B586B000AFF860B9607A603B60DA
:105F100043F22153FB82FB681B78012B08D1FB68FD
:105F20000C333A687968184600F07DF90346FB8225
:105F3000FB8A18461837BD4680BD80B586B000AFD5
:105F4000F860B9607A603B6043F22153FB82FB68E2
:105F50001B78012B08D1FB680C333A687968184626
:105F600000F07DF90346FB82FB8A18461837BD46D0
:105F700080BD80B586B000AFF860B9607A60FB681C
:105F8000002BFCD0BB68002BFCD07B68002BFCD026
:105F9000FB687B617B691B683B613B69002BFCD024
:105FA0007B68BA6879693869FFF7ABFF0346184622
:105FB0001837BD4680BD80B586B000AFF860B960C7
:105FC0007A60FB68002BFCD0BB68002BFCD07B68A0
:105FD000002BFCD0FB687B617B691B683B613B69E4
:105FE000002BFCD07B68BA6879693869FFF7A5FF98
:105FF000034618461837BD4680BD80B584B000AF53
:106000007860396043F22153FB813B68002BFCD060
:106010007B68002BFCD000BF7B68BB601422002192
:10602000B868FCF70DFD3B681A7ABB681A703B68CC
:106030001B7A012B0BD1BB6803F10C023B68DB68B8
:106040001946104600F0D0F80346FB8100E000BF7F
:10605000FB8918461037BD4680BD80B586B000AFBD
:10606000786039607B68002BFCD03B68002BFCD04B
:1060700000BF7B687B613B683B61FFF721FFF860F5
:106080007B699B685A1C7B699A60F868FFF729FF57
:10609000042200213868FCF7D3FC3B697A691A6056
:1060A000002318461837BD4680BD80B586B000AFC6
:1060B00078607B68002BFCD07B687B617B691B6808
:1060C0003B613B69002BFCD0FFF7FAFEF8603B69AF
:1060D0009B68002B04D03B699B685A1E3B699A6001
:1060E000F868FFF7FEFE042200217868FCF7A8FCA0
:1060F000002318461837BD4680BD80B586B000AF76
:10610000786039600023FB827B68002BFCD03B6801
:10611000002BFCD000BF7B683B613B68FB60FFF756
:10612000CFFEB8603B695B68002B03D043F222537B
:10613000FB820AE03B69FA685A6004220021386851
:10614000FCF77EFCFB683A691A60B868FFF7C9FE85
:10615000FB8A18461837BD4680BD80B586B000AFB3
:1061600078607B68002BFCD07B687B617B691B6857
:106170003B613B69002BFCD03B695B687A699A42C2
:10618000F7D1FFF79DFEF8603B6900225A60F8687E
:10619000FFF7A7FE042200217868FCF751FC0023DA
:1061A00018461837BD4680BD80B584B000AFF86092
:1061B000B9607A607A68B968F868FFF7DAFE034672
:1061C00018461037BD4680BD80B584B000AFF8607A
:1061D000B9607A607A68B968F868FFF7ECFE034640
:1061E00018461037BD4680BD80B584B000AF7860DA
:1061F00039600023FB813B68002BFCD07B68002BBF
:10620000FCD000BF7B68BB60BB683968184601F0F2
:106210007DF80346FB81FB89002BFCD1FB891846E6
:106220001037BD4680BD80B586B000AFF860B9605C
:106230007A60FB68002BFCD0BB68002BFCD07B682D
:10624000002BFCD0FB687B617B697A68B9681846D3
:1062500001F036F9034618461837BD4680BD80B5B3
:1062600086B000AFF860B9607A60FB68002BFCD0A4
:10627000BB68002BFCD07B68002BFCD0FB687B61EB
:106280007B697A68B968184601F0D4F80346184665
:106290001837BD4680BD000080B586B000AF03460C
:1062A0000A46FB8013467B71B7F906301B0A7B61F7
:1062B000FB8803F01F033B617B69072B06D90F4B5B
:1062C0000F4A40F2C1410F4801F0B4FA7B699A00CD
:1062D0000D4B1344FB60FB681A6803213B6901FA0C
:1062E00003F3DB431A4079793B6901FA03F31A435C
:1062F000FB681A6000BF1837BD4680BD407D007046
:10630000BC840070507D007068C00F4080B582B0C2
:1063100000AF0346FB80B7F9063003211846FFF7AC
:10632000BBFF00BF0837BD4680BD80B483B000AF5F
:1063300078607B689B6843F002027B689A607B68A8
:106340009B6823F002027B689A6000BF0C37BD4651
:106350005DF8047B7047000080B584B000AF7860C2
:106360000023FB6009E00E4AFB6852F823307A688C
:106370009A4206D0FB680133FB60FB68082BF2D918
:1063800000E000BFFB68082B05D9064B064A7E21BA
:10639000064801F04FFAFB6818461037BD4680BD2D
:1063A000648400707C7D00709C840070A47D00700B
:1063B00080B58CB000AFF860B9607A60BB68002B24
:1063C00005D1764B764AF521764801F033FABB6861
:1063D0001B68002B05D1744B714AF621714801F0FE
:1063E00029FABB681B7A042B05D9704B6C4AF8213B
:1063F0006C4801F01FFABB685B7A042B05D96C4B23
:10640000674AF921674801F015FA0023FB62BB686F
:106410001B68FB61002387F823300023FB840423DF
:1064200087F8223041E07A6813469B0013445B00F2
:106430001946BB681B6897F8222002FB03F3B1FBE7
:10644000F3F305335B4AA2FB0323DB08BB84BB8C5D
:10645000002B01D10123BB8497F82230BA8C02FBB8
:1064600003F37A68B2FBF3F37B61BB681B687A695C
:106470009A4204D9BB681B687A69D31A03E0BB68E7
:106480001A687B69D31A3B613A69FB699A4207D85B
:106490003B69FB6197F8223087F82330BB8CFB8483
:1064A00097F82230013387F8223097F82230202BDA
:1064B000B9D9BB681B68404AA2FB03235A0913469B
:1064C0005B001344FA699A4203D940F22153FB62FC
:1064D000FEE0F868FFF740FFB861384ABB6932F95F
:1064E00013301846FFF712FFF868FFF71EFFFB682E
:1064F0001B69BB6297F82330032B07D997F8233029
:10650000072B03D8BB6A43F40033BB62BB6A23F09A
:10651000F853BB6297F82330013B1B0603F0F85396
:10652000BA6A1343BB62BA6A254B1340BB62FB8C49
:10653000C3F30C02BB6A1A43FB681A61FB681B6950
:1065400023F00052FB681A61FB689A691D4B1340E7
:10655000BB62BB681B791A46BB68DB7B1B0203F47A
:10656000E0631A43BB689B7B9B0003F00403134367
:10657000BA6A1343BB62BB685B79012B24D1BB6849
:106580001B79002B04D0BB6A23F40063BB6223E0B9
:10659000BB6A43F40063BB621EE000BFF07D007085
:1065A000B0840070A47D0070007E00701C7E0070BE
:1065B000647E0070CDCCCCCC1F85EB5188840070FC
:1065C00000E0FFFFE8F8FFFFBB681B79002B03D05A
:1065D000BB6A43F01003BB62FB68BA6A9A61FB684E
:1065E0001B6923F40053BB62BB68DB795B0303F4D4
:1065F0000052BB6A1A43FB681A61BB685B7A1B04D2
:10660000BA68127A1A43FB68DA62FB689B6A43F045
:106610008802FB689A62FB689B6A43F44042FB680D
:106620009A622E4BBB62BB6A43F00043BB62BB6AFB
:1066300043F44043BB62FB685A6ABB685B7B1B0147
:1066400003F01001BB681B7B5B0103F020030B43CD
:106650001A43FB685A62BB689B7A002B05D0FB6823
:106660005B6A43F00802FB685A62BB68DB7A002B66
:1066700005D0FB685B6A43F00102FB685A62BB68A5
:106680009B79002B04D0BB6A43F00053BB6203E04C
:10669000BB6A23F00053BB62FB685A69BB6A1A43AA
:1066A000FB685A61FB689B69BB62BB681B7C002B63
:1066B00003D0BB6A43F40023BB62BB685B7C002B46
:1066C00003D0BB6A43F48023BB62FB68BA6A9A6159
:1066D000FB6A18463037BD4680BD00BF00001F4032
:1066E00080B582B000AF78607B68002B06D11F4B6D
:1066F0001F4A40F209211F4801F09CF81422002192
:106700007868FCF79DF97B684FF4E1321A607B688A
:1067100000221A717B6800225A717B6800229A71EC
:106720007B680022DA717B6800221A727B68002283
:106730005A727B6800229A727B680022DA727B6848
:1067400000225A737B6800221A737B6800229A73B6
:106750007B680022DA737B6800221A747B6800224F
:106760005A7400BF0837BD4680BD00BFF07D007081
:10677000D0840070A47D007080B485B000AF7860D4
:106780007B685B69FB607B689B6A1B0C03F0C3033F
:10679000FA681343FB60FB6818461437BD465DF882
:1067A000047B704780B584B000AF786039607B6847
:1067B0009B6ABB60BB6823F44033BB603B681B042F
:1067C00003F44033BA681343BB607B68BA689A62CB
:1067D0007B685B69BB60BB6823F00043BB603B68C0
:1067E00003F00043BA681343BB60BA68144B13400C
:1067F000BB603A68134B1340BA681343BB60BB6875
:1068000023F44043BB603B6803F44043BA6813433E
:10681000BB607B68BA685A617868FFF7ADFF0246D3
:106820003B681340002B03D040F21A53FB6001E099
:106830000023FB60FB6818461037BD4680BD00BFD3
:10684000FFFFE0BF00001F4080B586B000AFF860DA
:10685000B9607A60BB68002B06D1164B164A40F22D
:106860006E31164800F0E6FFBB687B617B683B61D8
:1068700011E000BFFB685B6903F40003002BF9D053
:106880007B691B781A46FB68DA617B6901337B619F
:106890003B69013B3B613B69002BEAD100BFFB68D0
:1068A0005B6903F48003002BF9D0002318461837E6
:1068B000BD4680BDE07D0070E8840070A47D00705E
:1068C00080B58AB000AFF860B9607A60BB68002B11
:1068D00006D1544B544A40F2AF31544800F0AAFF5D
:1068E00000237B62BB683B62FB689B69FB61FB69C1
:1068F00003F40063002B09D1FB6903F01003002BA4
:1069000006D1FB6903F00203002B01D0012300E054
:106910000023FB76FB7E03F00103FB7676E0F8684C
:10692000FFF72AFF78617B6903F40023002B0ED068
:106930004FF40021F868FFF735FF0346002B02D122
:1069400040F21D5301E040F21A537B6244E07B6940
:1069500003F48033002B0DD04FF48031F868FFF73B
:1069600021FF0346002B02D14FF4A46301E040F263
:106970001A537B627B6903F40033002B0DD04FF474
:106980000031F868FFF70EFF0346002B02D140F2FA
:106990001F5301E040F21A537B627B6903F48023AA
:1069A000002B0DD04FF48021F868FFF7FBFE034663
:1069B000002B02D140F21E5301E040F21A537B62D9
:1069C0007B6A002B07D1FB68DB6A1B0E03F0070311
:1069D000002BA4D000E000BF7B6A002B1CD1FB7E03
:1069E000002B0BD0FB68DB69DBB203F07F03DAB26C
:1069F0003B6A1A703B6A01333B6207E0FB68DB6964
:106A0000DAB23B6A1A703B6A01333B627B685A1EFA
:106A10007A60002BD7D100E000BF7B6A1846283788
:106A2000BD4680BDE07D007000850070A47D0070D3
:106A300080B500AF054B1B68054A526811460548F2
:106A40009847BFF34F8F00BF00BF80BD9C0300205D
:106A5000780300200040184080B500AF054B1B684C
:106A6000054A9268114605489847BFF34F8F00BF0B
:106A700000BF80BD9C0300207803002000801840E8
:106A800080B500AF054B1B68054AD2681146054822
:106A90009847BFF34F8F00BF00BF80BD9C0300200D
:106AA0007803002000C0184080B500AF054B1B687C
:106AB000054A1269114605489847BFF34F8F00BF3A
:106AC00000BF80BD9C030020780300200000194017
:106AD00080B500AF054B1B68054A52691146054851
:106AE0009847BFF34F8F00BF00BF80BD9C030020BD
:106AF000780300200040194080B500AF054B1B68AB
:106B0000054A9269114605489847BFF34F8F00BF69
:106B100000BF80BD9C030020780300200080194046
:106B200080B500AF054B1B68054AD2691146054880
:106B30009847BFF34F8F00BF00BF80BD9C0300206C
:106B40007803002000C0194080B500AF054B1B68DA
:106B5000054A126A114605489847BFF34F8F00BF98
:106B600000BF80BD9C0300207803002000001A4075
:106B700080B400AF074BD3F8703203F01003002B42
:106B800002D1054B1B6800E0044B1846BD465DF87A
:106B9000047B704700800D40A003002000366E018A
:106BA00080B483B000AF786039603B681B0CC3F3DE
:106BB0000B027B6813441B6803F48033002B14BF63
:106BC00001230023DBB218460C37BD465DF8047B79
:106BD000704780B483B000AF786039603B681B0CAD
:106BE000C3F30B027B6813441A683B6803F01F036E
:106BF00022FA03F303F00103002B14BF0123002347
:106C0000DBB218460C37BD465DF8047B704780B593
:106C100082B000AF786039603B681B0CC3F30B0295
:106C20007B6813441B689B0B03F00303002B03D109
:106C3000FFF79EFF034600E0002318460837BD46D5
:106C400080BD000080B582B000AF0346FB71FB79C8
:106C500083F00103DBB2002B05D1144B144AC12190
:106C6000144800F0E7FD144B4FF08042C3F8582160
:106C700000BF114BD3F8703203F48033002BF8D0EF
:106C80000D4B4FF48032C3F8542100BF0A4BD3F8A8
:106C9000503103F40043002BF8D0074B4FF48032FF
:106CA000C3F8582100BF0837BD4680BD307F007053
:106CB00014850070407F007000800D4080B483B068
:106CC00000AF0346FB71FB79002B04D1074B102268
:106CD000C3F8742203E0054B1022C3F8782200BFEA
:106CE0000C37BD465DF8047B704700BF00800D4047
:106CF00080B400AF064BD3F87032054A43F001036D
:106D0000C2F8703200BFBD465DF8047B704700BF1B
:106D100000800D4080B483B000AF7860154B1B68D5
:106D200023F4E0327B681B799B039BB21343114A27
:106D300043F4803313600F4B1A680F4B13407A688B
:106D4000126802F07F0213430A4A43F400531360AF
:106D500000BF084B1B68002BFBDA064B1B68054A7B
:106D600023F48033136000BF0C37BD465DF8047B0D
:106D7000704700BF00800D4080CFFFFF80B483B01C
:106D800000AF7860224B1B6B23F4E0327B681B7BE7
:106D90009B039BB213431E4A43F4803313631C4B83
:106DA0001A6B1C4B13407A68127802F001021343ED
:106DB000174A43F4005313637B685B68144A23F05B
:106DC000404313657B689B68114A23F04043136678
:106DD0007B685B8AC3F30E027B681B7CDB039BB280
:106DE0001A437B68DB891B04094913430B6400BF0A
:106DF000074B1B6B002BFBDA054B1B6B044A23F480
:106E00008033136300BF0C37BD465DF8047B7047C9
:106E100000800D40FECFFFFF80B400AF034B002287
:106E20001A6200BFBD465DF8047B704700800D40CC
:106E300080B400AF044B4FF480521A6700BFBD46C8
:106E40005DF8047B704700BF00800D4080B400AF48
:106E5000044B4FF48052C3F8E02000BFBD465DF8FC
:106E6000047B704700800D4090B58BB000AF786018
:106E7000B84B07F108040FCB84E80F007968B648D7
:106E8000FFF7A7FE034683F00103DBB2002B01D01E
:106E90000023E7E17968B048FFF7B9FE78627968C6
:106EA000AD48FFF77DFE0346002B01D07B6AD9E198
:106EB0007B68AA4A934200F0C0817B68A74A93424C
:106EC00000F2CC817B68A64A934200F0A6817B68E1
:106ED000A34A934200F2C2817B68A24A934200F027
:106EE0008D817B689F4A934200F2B8817B689E4AFD
:106EF000934200F0EE807B689B4A934200F2AE81A1
:106F00007B689A4A93426ED07B68984A934200F21B
:106F1000A5817B68964A934220D07B68944A93422D
:106F200000F29C817B68934A934200F089817B68E0
:106F3000904A934200F292817B680D2B04D07B68CB
:106F40008D4A934241D089E1834B1B6803F07F0354
:106F50007A6A02FB03F35B087B6282E17B6A07EEDD
:106F6000903AB8EE676B7C4B1B6D07EE903AB8EE2B
:106F7000677B26EE077B87ED067B774B1B6E07EE64
:106F8000903AB8EE676B97ED065B85EE067B87ED72
:106F9000067B714B1B6B03F00103002B05D07B6A52
:106FA000162202FB03F37B6205E07A6A13469B001C
:106FB00013449B007B6297ED067BFCEEC77B17EECC
:106FC000902A7B6A13447B624BE1634B1B6903F09D
:106FD0000203002B01D0162200E014227B6A02FB80
:106FE00003F37B623DE15C4B1B6F03F07F033B626D
:106FF0007B6A07EE903AB8EE676B574BD3F8803058
:1070000007EE903AB8EE677B26EE077B87ED067BAE
:10701000514BD3F8903007EE903AB8EE676B97ED8E
:10702000065B85EE067B87ED067B7B6A3A6A02FB90
:1070300003F397ED067BFCEEC77B17EE902A134413
:107040007B62454B1B6F03F4C013B3F5801F17D051
:10705000B3F5801F0DD8002B03D0B3F5002F04D05B
:1070600007E07B6A9B087B620BE07B6A5B087B62C4
:1070700007E0424B424A40F21741424800F0DAFB37
:1070800000BF354BD3F870213F4B13403E4A93422B
:107090000ED03D4A934213D8B3F5000F17D0B3F585
:1070A000000F0DD8002B12D0B3F5004F04D007E02D
:1070B0007B6A9B087B620BE07B6A5B087B6207E074
:1070C0002E4B2F4A40F22B412E4800F0B3FB00BF5D
:1070D000C7E0214BD3F8A03003F07F033B627B6A0B
:1070E00007EE903AB8EE676B1B4BD3F8B03007EE63
:1070F000903AB8EE677B26EE077B87ED067B164B52
:10710000D3F8C03007EE903AB8EE676B97ED065BA8
:1071100085EE067B87ED067B7B6A3A6A02FB03F30A
:1071200097ED067BFCEEC77B17EE902A13447B623B
:10713000094BD3F8A03003F4C013B3F5801F34D04B
:10714000B3F5801F2AD8002B20D0B3F5002F21D013
:1071500024E000BFCC80007000800D401500E000EE
:107160001400E0000D00E0000D00A0000D00700014
:107170000D0030000D0020000D001000C4800070D4
:107180002C850070407F0070008080007B6A9B0827
:107190007B620BE07B6A5B087B6207E0334B344A1F
:1071A0004FF48B61334800F045FB00BF324BD3F8FE
:1071B000703103F04043B3F1404F0ED0B3F1404F74
:1071C00013D8B3F1004F17D0B3F1004F0DD8002BF7
:1071D00012D0B3F1804F04D007E07B6A9B087B623A
:1071E0000BE07B6A5B087B6207E0204B204A40F2A1
:1071F0006C41204800F01EFB00BF32E01E4BD3F86C
:10720000E03003F003033B623B6A9B0007F1280276
:10721000134453F8203C7B6223E0174BD3F8E03053
:107220009B0803F003033B623B6A9B0007F12802C3
:10723000134453F8203C7B6213E0104B7B6210E058
:107240000D4B1B6A03F00203002B01D0162200E055
:1072500014227B6A02FB03F37B6202E000237B6261
:1072600000BF7B6A18462C37BD4690BDC4800070B5
:107270002C850070407F007000800D4040787D01BB
:1072800080B485B000AF03460A46FB711346BB715C
:10729000FB79FB60124BD3F80021FB68DB00BF21B8
:1072A00001FA03F3DB431340BB60FB68DB00802281
:1072B0009A400B49BB681343C1F80031BB7903F016
:1072C0003F02FB68DB009A400549BB681343C1F8E5
:1072D000003100BF1437BD465DF8047B704700BF26
:1072E00000800D4080B485B000AF78607B68002BD3
:1072F00002D10023FB8102E042F6AF73FB81FB89E0
:1073000018461437BD465DF8047B704780B58AB0D7
:1073100000AF786039600023FB847B68002B06D1C6
:107320003D4B3E4A4FF4A0713D4800F083FA3B6864
:10733000002B06D13B4B394A40F24111384800F04E
:1073400079FA3B689B7B082B06D9374B334A4FF4BD
:10735000A171334800F06EFA3B689B7B1A46334BB1
:1073600053F82230002B06D1314B2C4A40F2431106
:107370002B4800F05FFA07F108031846FFF7B0F951
:107380003B685B68BB603B681B7A3B733B685B7A1E
:10739000FB733B689B7A002B14BF01230023DBB2F5
:1073A0007B763B68DB7A002B14BF01230023DBB222
:1073B0003B763B681B7B002B14BF01230023DBB211
:1073C000BB743B685B7B002B14BF01230023DBB243
:1073D000FB743B689B7B1A46144B53F822003B68B6
:1073E0001A6807F108031946FEF7E2FF38623B6AA4
:1073F000002B05D0386AFFF775FF0346FB8405E0D4
:107400007B68FB613B689A7BFB691A70FB8C1846B2
:107410002837BD4680BD00BFDC80007064850070E9
:10742000E48000700C810070148100704085007051
:107430006081007080B586B000AFF860B9607A6096
:10744000FB68002B06D1184B184A40F2A5111848CA
:1074500000F0F0F9BB68002B06D1164B134A4FF42D
:10746000D371134800F0E6F97B68002B06D1124B6C
:107470000E4A40F2A7110E4800F0DCF9FB687B6170
:107480007B691B781A460D4B53F822307A68B9682D
:107490001846FFF715FA38613869FFF723FF0346EE
:1074A00018461837BD4680BDDC80007074850070BA
:1074B000E4800070888100709081007040850070C9
:1074C00080B586B000AFF860B9607A60FB68002BC9
:1074D00006D1164B164A4FF4DA71164800F0AAF995
:1074E000BB68002B06D1144B114A40F2B51111486C
:1074F00000F0A0F97B68002B06D1104B0C4A4FF42A
:10750000DB710C4800F096F9FB687B617B691B78A6
:107510001A460B4B53F822307A68B9681846FFF7C1
:1075200093F9002318461837BD4680BDDC800070F3
:107530008C850070E48000708881007090810070FC
:107540004085007080B483B000AFEFF310833B60E0
:107550003B687B6072B600BF7B6818460C37BD463F
:107560005DF8047B704780B485B000AF78607B68BD
:10757000FB60FB6883F3108800BF00BF1437BD4673
:107580005DF8047B704780B485B000AF78603960E7
:107590000023FB817B685B89002B08D07B685A89BC
:1075A0007B681B899A4202D143F27A73FB81FB8983
:1075B00018461437BD465DF8047B704780B584B02B
:1075C00000AF78603960FFF7BDFFF86000237B8172
:1075D00039687868FFF7D7FF03467B817B89002BEA
:1075E0001AD17B681B89002B03D17B683A681A602B
:1075F00003E07B685B683A681A603B687A685A60A7
:107600003B6800221A607B683A685A607B681B8975
:1076100001339AB27B681A81F868FFF7A4FF7B896F
:1076200018461037BD4680BD80B483B000AF786087
:107630007B681B6818460C37BD465DF8047B7047B5
:1076400080B483B000AF78607B681B6818460C3745
:10765000BD465DF8047B704780B584B000AF6B4BCE
:10766000D3F88830694A43F47003C2F88830684B15
:107670001B899BB2664A23F001039BB21381654BC1
:107680001B899BB2634A23F001039BB21381604BB9
:107690001B889BB203F00403002B07D05C4B1B88B4
:1076A0009BB25B4A23F004039BB21380594B1B88A7
:1076B0009BB203F00403002B07D0564B1B889BB2F0
:1076C000544A23F004039BB21380534B1B6803F40A
:1076D0000053002B03D0504B504A5A6007E04E4BEA
:1076E0004CF220525A604C4B4DF628125A604A4BCD
:1076F0004FF6FF729A60484B1B6823F0A003464A7E
:1077000043F020031360464B1B6803F00103002B7A
:1077100005D0434B1B68424A23F0010313603B4BE7
:107720005B6903F40033B3F5003F22D0374B5B694C
:1077300003F40033002B1BD1BFF34F8F00BFBFF307
:107740006F8F00BF314B0022C3F85022BFF34F8F21
:1077500000BFBFF36F8F00BF2C4B5B692B4A43F414
:1077600000335361BFF34F8F00BFBFF36F8F00E053
:1077700000BF264B5B6903F48033B3F5803F3FD0F5
:10778000224B5B6903F48033002B38D11F4B00225E
:10779000C3F88420BFF34F8F00BF1C4BD3F8803059
:1077A000FB60FB685B0BC3F30E03BB60FB68DB088D
:1077B000C3F309037B60BB685A0143F6E0731340CF
:1077C0007A68920711491343C1F860327B685A1EE8
:1077D0007A60002BEFD1BB685A1EBA60002BE5D14E
:1077E000BFF34F8F00BF094B5B69084A43F48033F6
:1077F0005361BFF34F8F00BFBFF36F8F00E000BF37
:1078000000F010F800BF1037BD4680BD00ED00E06D
:1078100000800B4000000D4000C00B4020C528D95F
:1078200010E000E080B400AF00BFBD465DF8047B0F
:107830007047000080B586B002AFF860B9607A602A
:107840003B607B680093BB68FA6839680248FEF7C2
:10785000FBFA00BEFDE700BF9881007080B584B0E0
:1078600000AFF860B9601346FB71BB681F2B05D9E8
:107870000C4B0D4A71210D48FFF7DCFFFB79002B03
:1078800006D10122BB689A40FB68C3F8882005E056
:107890000122BB689A40FB68C3F8842000BF103700
:1078A000BD4680BD60820070A48500703882007083
